:1000000014EF05F0416775696C6172526F64726933
:100010006775657A00003231353836303034390052
:1000200050726163746963612033000053656E73BD
:100030006F722050726573696F6E00005072657345
:10004000696F6E3D25332E30674B70610000EA6AA0
:10005000220EE96EEF5007E0A50E006E002EFED7CF
:100060000000EF2EF9D7120029B002D08C9601D0F3
:100070008C86959629B202D08C9801D08C88959860
:1000800029B402D08C9A01D08C8A959A29B602D0D4
:100090008C9C01D08C8C959C00008C8495940000E5
:1000A0008C94959412002A6A9586000E83B6010EF0
:1000B0002A129588000E83B8010E006ED890003683
:1000C00000502A12958A000E83BA010E006E003687
:1000D0000036FC0E001600502A12958C000E83BCD0
:1000E000010E006E003600360036F80E0016005085
:1000F0002A122AC001F0120095869588958A958C5F
:100100008C82959200008C8495940000CCDF01C015
:1001100029F08C94959400008C849594C4DF01C0E0
:1001200028F08C94959495969598959A959C293855
:10013000006EF00E001600502810016EA6EF00F0C1
:100140009594959095928C909590D6D701C028F073
:1001500001BEFBD7265202E18C9001D08C80959095
:1001600000008C92959200008C9495942738286E0C
:100170000F0E281628C029F077DF27500F0B286EA6
:10018000296E72DF1200280E156E0C0E166E010E0F
:10019000176E060E186E8C9495948C9095908C9298
:1001A000959295969598959A959C959495909592FB
:1001B0000F0E226E4CDF010E146E1450030808E37C
:1001C000030E296E51DF050E226E41DF142AF5D78A
:1001D000020E296E49DF050E226E39DF146A1450B3
:1001E00003080DE3036A1450150FE96E000E032097
:1001F000EA6EEFCF27F0266AA3DF142AF0D729EFA3
:1002000005F0232C01D003D0400E246E01D0246AC7
:10021000010E225C242624508009256E266A276E52
:100220008FDF12002150070A07E00B0A0AE0060AD6
:1002300010E0020A14E018D0010E226E236EE1DFF6
:1002400018D0266A010E276E7BDF020E226EFFDEBB
:1002500010D0010E226E020E236ED3DF0AD0266A62
:10026000100E276E6DDF05D0010E266E21C027F01F
:1002700067DF12000900F5520CE0F6CF14F0F7CF5B
:1002800015F0F5CF21F0CEDF14C0F6FF15C0F7FF53
:10029000F1D712008E0E006E15C001F014C002F0EE
:1002A000036A015209E102C001F0026A080E005E11
:1002B000015202E1006A08D0D89001BE04D0023693
:1002C00001360006F9D7019E91EF05F02150D8B410
:1002D00071D0006E2550D8B46DD0002604E3810E95
:1002E000002668E204D07F0E005E64E363E022C073
:1002F00029F02650291A228E268E24502802F4CF67
:100300002BF023502702F4CF03F0F3CF2AF028027A
:10031000F3502B26F4502A22000E032224502702E9
:10032000F3502B26F4502A22000E026A03220222E6
:1003300022502802F3502A26F4500322000E0222F3
:1003400022502702F3500326F4500222000E016AC5
:10035000012224502602F3502A26F4500322000ED4
:100360000222012223502602F3500326F4500222D7
:10037000000E012222502602F3500226F4500122E0
:10038000002A01BE05D02A360336023601360006A1
:10039000000E2AAE0AD0032A02220122015005E1F2
:1003A000025003E1035001E1002A29BE018E29AE6B
:1003B000019E04D0006A016A026A036A12001850A2
:1003C000D8B4A5D0246E1C50D8B4A1D0245E05E3C7
:1003D0007F0E2426D8B09BD006D0810E245ED8A0F4
:1003E00096D0D8B494D024C000F0016A026A036A9F
:1003F000236A19C022F0228E1AC021F01BC020F0FF
:10040000190E246E1F50205E0DE2010E215E0AE2DD
:10041000225E08E2235E06E2232A222A212A1F50B6
:10042000202628D01E50215E12E2010E225E0FE22D
:10043000235E0DE2232A222A1E5021261F50202649
:1004400019E3212A17E1222A15E1232A13D01D508E
:100450008009225E0EE2010E235E0BE2232A1D506C
:10046000800922261E502126E9E3222AE7E1232AD9
:10047000E5D70380242E01D00BD0D890203621362A
:1004800022362336D8900336023601362536BAD7BF
:1004900025A006D0D890013202320332253202D094
:1004A000000635E025BE1ED0D890203621362236F3
:1004B00023361F50205E07E2010E215E04E2225E19
:1004C00002E2235E1AE31E50215E05E2010E225E67
:1004D00002E2235E12E31D508009225E03E2010E58
:1004E000235E0BE3032A09E1022A07E1012A05E161
:1004F000002A0DE001320232033219C024F01D50EF
:10050000241A24AE02D0018E06D0019E04D0006AC7
:10051000016A026A036A1200800ED8B2261A2B6A98
:100520002C6A22C02AF026502A1A2150D8B4DCD0D6
:10053000296E006E2550D8B4E0D0295ED8B481D0A1
:100540003DE326C02FF02F8E27C02EF028C02DF0BF
:100550002C6AD8902F322E322D322C32292EF8D7F9
:100560002AAE03D02B80DDD02B9029902B88EA6A0D
:10057000240EE96EE9D02B982ABE0AD029A013D008
:100580002F322E322D322C32002AD8B4C5D00BD0C7
:100590002FBE0CD0D8902C362D362E362F36000696
:1005A000D8B4BAD0F5D72B8C6BD02B9C22C02AF0B4
:1005B00022AE02D02F8EA9D02F9EA7D025C029F021
:1005C00025C000F02150295E22C02FF02F8E23C0BD
:1005D0002EF024C02DF02C6AD8902F322E322D32DE
:1005E0002C32292EF8D72AAE03D02B829AD02B9208
:1005F00029902B8AEA6A280EE96EA6D02B9A2ABE89
:100600000AD029A013D02F322E322D322C32002ABC
:10061000D8B482D00BD02FBE0CD0D8902C362D362B
:100620002E362F360006D8B477D0F5D72B8E28D0AB
:100630002B9E26C02AF026AE02D02F8E66D02F9E8B
:1006400064D026C02FF02F8E27C02EF028C02DF0AA
:100650002AAE04D02F9E2B8464D02B942C6A299030
:10066000EA6A240EE96E70D02ABE1CD022C02AF09D
:1006700029A006D02F322E322D322C32002A4CE007
:100680002CAE0BD02D2A09E12E2A07E12F2A05E1F5
:100690002F322E322D32002A3FE02BBC86D72BBEC4
:1006A000C7D71CD0800E2F1A2FAE04D03AD026C048
:1006B0002AF00AD022C02AF02F5206E12E5204E17D
:1006C0002D5202E1006A21D02FBE08D0D8902C36DE
:1006D0002D362E362F36002EF7D71ED02AAE02D05A
:1006E0002F8E13D02F9E11D025C000F026C02FF0E2
:1006F00027C02EF028C02DF008D021C000F022C065
:100700002FF023C02EF024C02DF02FC001F02EC0FA
:1007100002F02DC003F034D0006A016A026A036A55
:100720002FD02C6A2D1E2E1E2F1E2C1E2C2A05E1CA
:100730002D2A03E12E2A01E12F2A2BB015D72BB247
:1007400056D72BB48AD7B3D7EF502D2605E32E2AE0
:1007500003E12F2AD8B42980ED52EF502E2603E36F
:100760002F2AD8B42980ED52EF50EFBE01D0800A75
:100770002F26D8B029802BB8FED62BBA3FD774D7F6
:1007800012000900F6CF15F0F7CF16F0F5CF21F0E3
:1007900049DD15C0F6FF16C0F7FF142EF2D7120080
:1007A0002150B608216E036A22C025F0228ED8900F
:1007B0002232233224320332023201320032212E1D
:1007C000F6D725AE0BD0001E011E021E031E002A06
:1007D000D8B4012AD8B4022AD8B4032A7EEF04F090
:1007E000D8B203D0EA6A290EE96E006A016A026A89
:1007F000036A296A2A6A2B6A2C6A28502710261055
:1008000025102CE0200E2D6ED8902136223623366E
:10081000243629362A362B362C3628502C5C08E113
:1008200027502B5C05E126502A5C02E12550295C0B
:100830000FE32550295E2650D8A0263C2A5E27507B
:10084000D8A0273C2B5E2850D8A0283C2C5ED8800E
:1008500000360136023603362D2ED6D729C0EFFFDB
:100860002AC0ECFF2BC0ECFF2CC0ECFF1200E950BB
:10087000196E18501B6E19E017C024F016C023F033
:1008800015C022F014C021F0286A276A200E266EB7
:10089000820E256E1BDD03C017F002C016F001C0EA
:1008A00015F000C014F01B2EE7D77E0E006E016A13
:1008B00015BE018E026A036AD89217C024F016C0D2
:1008C00023F015C022F014C021F003C028F002C0AC
:1008D00027F001C026F0256E1FDE03C017F002C00E
:1008E00016F001C015F000C014F017C024F016C0B7
:1008F00023F015C022F014C021F052D703C017F026
:1009000002C016F001C015F000C014F017AE0DD0F3
:100910001906198A141E151E161E171E142AD8B47D
:10092000152AD8B4162AD8B4172A3B0E206E9A0E70
:100930001F6ECA0E1E6E1D6A0A0E1B6E1850D8B4AA
:10094000192AD882EA6A140EE96E17C024F016C07C
:1009500023F015C022F014C021F020C028F01FC0E1
:1009600027F01EC026F01DC025F03ADF01500052CE
:100970000FE118281B5C0CE019500CE00F0B1B5CFE
:1009800001E037E219BE35D019BC04D0200E2DD0BD
:10099000200E191619AA0CD0199A1850D8A41906A5
:1009A0000050196E2D0E216E3DDC1950006E196A33
:1009B00018501B5C0AE10050196E2E0E216E32DCBD
:1009C0001950006E200E1916000E300E19AA0DD007
:1009D000199A1850D8A419060050196E2D0E216EC0
:1009E00021DC1950006E196A300E002600C021F07B
:1009F00019DCD89220C024F01FC023F01EC022F0C2
:100A00001DC021F0286A276A266A0A0E256EE8DED4
:100A100003C020F002C01FF001C01EF000C01DF096
:100A20001B2E8FD71DEF06F0F86AD09E0D6A0C6A58
:100A3000C150C00B0F09C16E070EB46EC050C00B81
:100A40000709C06EC08EC280C150C00BC16EC3EF1B
:100A500000F0076A066A056A046A0B6A0A6A096A8C
:100A6000086A0C0E216E12EC01F0010E226E236E4C
:100A700001EC01F0040EF66E000EF76E3AEC01F098
:100A8000050E226E020E236E01EC01F0160EF66EBC
:100A9000000EF76E3AEC01F00C0E146EFA0E226E98
:100AA00027EC00F0142EFAD70C0E216E12EC01F098
:100AB000040E226E010E236E01EC01F0200EF66E84
:100AC000000EF76E3AEC01F0020E226E236E01EC7E
:100AD00001F02C0EF66E000EF76E3AEC01F00C0EE3
:100AE000146EFA0E226E27EC00F0142EFAD70C0EBC
:100AF000216E12EC01F0000E016EC250C30B01100A
:100B0000C26E100E006E002EFED70000C282C2B26E
:100B1000FED7C4CF03F0C3CF14F0C4CF15F04AEF13
:100B200001F003C007F002C006F001C005F000C0EC
:100B300004F0100E006E002EFED70000246A236A17
:100B4000200E226E810E216E07C028F006C027F00D
:100B500005C026F004C025F066EC01F003C017F0D4
:100B600002C016F001C015F000C014F003C01BF065
:100B700002C01AF001C019F000C018F01F6A1E6A06
:100B80001D6A890E1C6E1BDC03C013F002C012F03C
:100B900001C011F000C010F0D89213C024F012C0B0
:100BA00023F011C022F010C021F0BA0E286E490EB9
:100BB000276E0C0E266E7C0E256EAEDC03C017F081
:100BC00002C016F001C015F000C014F003C01BF005
:100BD00002C01AF001C019F000C018F04C0E1F6ED0
:100BE000080E1E6E2C0E1D6E7A0E1C6EDFEC01F0D0
:100BF00003C00BF002C00AF001C009F000C008F009
:100C0000100E006E002EFED70000010E226E236E25
:100C100001EC01F03C0EF66E000EF76E080E146E3D
:100C2000B0DD020EE96E0BC017F00AC016F009C065
:100C300015F008C014F0186A1AD6490EF66E000EA8
:100C4000F76E030E146E9DDD100E006E002EFED7A3
:060C5000000051D7030073
:020000040030CA
:0E0000003FC03E1E0087A1000FC00FE00F4062
:00000001FF
;PIC18F4550
;CRC=30A4  CREATED="04-dic-20 02:27"
